:100000000A308A00282A00000A108A100A11820782
:1000100028340C3401340634C732EF26653AB01860
:10002000C1060A00A8312910CB306B36E9352019FA
:10003000B018B3060A00F73B77176D366131AE3161
:10004000FA060A00A8312910CB306B36E9352019A1
:10005000B0183300F73B77176D366131AE317A0057
:10006000831603178C170C140000000083120C0871
:100070007F39031976280313AF0003170D08031304
:10008000B00003170F080313B1002F080C1E4628F9
:100090009900300803178D000313310803178F00F0
:1000A00083168C170C140000000083120C0D0E0D2B
:1000B0007F39031976280313AF0003170D080313C4
:1000C000B00003170F080313B1002F080C1E662899
:1000D0009900300803178D000313310803178F00B0
:1000E0008D0A03198F0A031330280317031308001E
:1000F0003D3084008313000803198B280230F80078
:10010000F701F70B8128F80B80289730F700F70BE1
:100110008728800B7E280800441890280812912810
:100120000816831608128312C41898288812992872
:1001300088168316881283124419A0280813A12850
:100140000817831608138312C419A8288813A9282E
:100150008817831688130000831209148316091068
:10016000B128B228831209108316091083120800DF
:10017000C5018316081600308312081A0130C50421
:100180008316881600308312881A0130F700031096
:10019000F70D7708C5048316081700308312081B73
:1001A0000130F700F70DF70DFC30F7057708C504AF
:1001B0008316881700308312881B0130F700F70D73
:1001C000F70DF70DF830F7057708C5044508F80076
:1001D00008008316091089100911831289108316EB
:1001E00089100816881608178817831209158316B0
:1001F00009110000831209148316091000008312EC
:10020000B8207808C4000910831609100000831272
:100210000914831609100C298312B8207808C3002A
:100220000910831609100812881208138813831204
:10023000440EF700F030F70577084304F80078081B
:10024000C300C31F25298316F128C108031D2A29CD
:1002500089102B2989148316891000008312091133
:1002600083160911000083120910831609108312E6
:10027000420EC3000F30C3054308C4008C2042085F
:100280000F39C300C4008C2008008316081288129E
:100290000813881309108910091183128910831615
:1002A000891083120911831609118312091083160C
:1002B00009100F308312BD0078200130AF002F08E5
:1002C000033C031C6B290330C4008C200530BD00A7
:1002D0007820AF0A5F290230C4008C20AF012F08BC
:1002E000033C031C7C292F080420B000C101300806
:1002F000C200E920AF0A6F2908003E0B802983293C
:100300004030BF008429BF0101303D02BF073F08D4
:100310008038C000C1014008C200E92008003C0844
:10032000073A03199D290B3A0319A229063A031922
:10033000AA29023A0319B029B5290130BD00BE002F
:100340007D21BB29C1010130C200E9200230BD007E
:100350007820BB290130BD000230BE007D21BB29C1
:10036000C1011030C200E920BB290130C1003C08A6
:10037000C200E920BB290800831603178C170C1450
:100380000000000083120C087F390319002A0313B0
:10039000AF0003170D080313B00003170F08031372
:1003A000B1002F08BC008F21300803178D00031304
:1003B000310803178F0083168C170C1400000000FF
:1003C00083120C0D0E0D7F390319002A0313AF00A1
:1003D00003170D080313B00003170F080313B10030
:1003E0002F08BC008F21300803178D00031331083C
:1003F00003178F008D0A03198F0A0313BC290317F3
:10040000031308000830F80000008711A01120082D
:100410008316870000008312B40D0712031C162AEE
:1004200020162008831687001A2A8312201220081B
:100430008316870000008312A0152008831687000A
:100440008312871D212AF80B042A00008711A011AE
:1004500020088316870000008312201620088316C8
:100460008700000000008312A01520088316870073
:100470008312871D392AF8010000071A78148711A2
:10048000A01120088316870083120712201220086B
:1004900083168700831208000830B5007708B6007D
:1004A000201620088316870000008312A01520085C
:1004B000831687008312871D5B2A071A0314071E01
:1004C0000310F80D0000A011200883168700831286
:1004D0008711B50B502A20162008831687000000CC
:1004E00083120712360803197A2A2012200883166D
:1004F000870083120000A01520088316870083124E
:10050000871D802A00008711A0112008831687000C
:10051000000083120712201220088316870083121E
:1005200008008E30F7003508F8003408F900FA01A9
:10053000F808031DA52A7908F800F9010830F70228
:10054000F808031DA52AF701AD2A0310F81BAC2AF1
:10055000F90DF80DF703A52AF81308003808031958
:10056000732BC4003C080319732BC402031CBD2A5F
:100570007F30C4070318732BC32A8130C402031CC5
:10058000732B0319732B4408F700F801F901FA01E2
:10059000C3013908C200C2173A08C1003B08C000B5
:1005A0001930C4003F08C0020318E62A0130C10216
:1005B0000318E62AC2020318E62AC3020318E62A31
:1005C000C30AC20AC10A3F08C007182B3E08C1026D
:1005D0000318012B0130C2020318012BC3020318B8
:1005E000012BC30AC20A3E08C1073F08C007031C0B
:1005F000182BC10A031D182BC20A031D182BC30A8E
:10060000182B3D088038C2020318172B0130C30293
:100610000318172BC30A3D088038C2073E08C107DC
:10062000031CF52AC20A031DF52AC30AF52A7A1407
:10063000C40B1B2B262B0310C00DC10DC20DC30D07
:100640000310FA0DF90DF80DC50DD22A451C2E2BFD
:100650000310F80CF90CFA0CC50C312BF703031935
:10066000732BC51B5A2B0310C00DC10DC20DC30D3A
:100670003F08C0020318462B0130C1020318462B65
:10068000C2020318462BC302031C692B3E08C10299
:100690000318512B0130C2020318512BC302031C53
:1006A000692B3D088038C20203185A2B0130C3025F
:1006B000031C692BFA0A031D692BF90A031D692B18
:1006C000F80A031D692BF70A0319732BF80CF90CB0
:1006D000FA0C3908C4003D08C406C41F712BF81772
:1006E000772BF813772BF701F801F901FA010800CD
:1006F0003C080319E82BC40040080319E82BC40781
:100700000318892B7F30C402031CE82B0319E82B44
:100710008D2B8130C4070318E82B4408F700F8013B
:10072000F901FA013D08C800C8173E08C7003F0894
:10073000C6001830C400C501461CB62B4308FA0792
:10074000031CA82BF90A031DA82BF80A0319C517C7
:100750004208F907031CAF2BF80A0319C517410813
:10076000BE00BE173E08F8070318C517C50DF80CE4
:10077000F90CFA0CC80CC70CC60C0310C40B9B2B4D
:100780000130F7070318E82BF81BCD2BC80DFA0D25
:10079000F90DF80DF7030319E82BC81FDE2BFA0A31
:1007A000031DDE2BF90A031DDE2BF80A031DDE2BC9
:1007B000F80CF90CFA0CF70A0319E82B3D08C500F0
:1007C0004108C506C51FE62BF817EC2BF813EC2BD8
:1007D000F701F801F901FA01080080308318B90621
:1007E000BE01BF013508BD003908BD063408031934
:1007F000DD2CBC00F70038080319E62CBC020319F5
:10080000822C031C402C3908C200C2173A08C100D0
:100810003B08C000BF010310C20CC10CC00CBF0CD0
:10082000BC0B0A2CBD1F172C3E14FA2C3E103C109A
:100830003E163730840083130F2D3E12BD1B2A2C29
:100840003C1C352CC20CC10CC00CBF0CF70A0319A0
:10085000F52C352CC21B382C0310BF0DC00DC10D5B
:10086000C20DF7030319F52C2A2C3E17A22C3E13B8
:100870003508BD00BD1F3E2CC217EE2CC213EE2C56
:100880003808BC00F7003408BC023508C200C217A3
:100890003608C1003708C000BF010310C20CC10CEC
:1008A000C00CBF0CBC0B4C2CBD1F592CBE14FA2C19
:1008B000BE103C10BE163B30840083130F2DBE12B9
:1008C000BD1B6C2C3C1C772CC20CC10CC00CBF0C8B
:1008D000F70A0319F52C772CC21B7A2C0310BF0DD5
:1008E000C00DC10DC20DF7030319F52C6C2CBE17FA
:1008F000A22CBE133908BD00BD1F802CC217EE2CE0
:10090000C213EE2C3908C200C2173A08C1003B08D6
:10091000C000BD1F8F2CC2133E15FA2C3E11BF0123
:100920003C103730840083130F2DBD1BB82C3508C5
:10093000BD003C1CA22CC20CC10CC00CBF0CF70AA1
:100940000319F52CBF1FB32CC00A031DB32CC10A19
:10095000031DB32CC20A031DB32CC20CC10CC00C66
:10096000F70A0319F52C3E1B372CBE1B792CD72C0C
:100970008030C206C21FC02CFA2C3908BD00CD2C15
:100980003508BD00C208031DCD2CC108031DCD2CA8
:10099000C008031DCD2CF701EE2CC21BD72C031071
:1009A000BF0DC00DC10DC20DF70BCD2CF52CBD1F19
:1009B000DB2CC217EE2CC213EE2C3808F7003908D6
:1009C000C2003A08C1003B08C000EE2C3408F70012
:1009D0003508C2003608C1003708C0004208F800D8
:1009E0004108F9004008FA002D2DF701F801F9013E
:1009F000FA012D2DBF01C009C109C209BF09BF0AF3
:100A0000031D082DC00A031D082DC10A0319C20ABF
:100A10003E18162CBE18582C3E198E2CBD2C0008E2
:100A2000C007031C192DC10A031D192DC20A031981
:100A30003C1484030008C107031C212DC20A0319BA
:100A40003C1484030008801F803AC20703183C143A
:100A50003E1A1D2CBE1A5F2C952C0800201620086B
:100A60008316870000008312A015200883168700D4
:100A700000008312871D3A2D0712201220088316CA
:100A80008700000083128711A011200883168700B9
:100A900080308312B4000222E330B400022220121C
:100AA00020088316870000008312A01520088316F3
:100AB00087008312871D5A2D00005E2D000020162E
:100AC000200883168700000064308312BD00782060
:100AD000201620088316870000008312A015200826
:100AE0008316870000008312071220122008831645
:100AF0008700000083128711A01120088316870049
:100B000081308312B40002220130F7004C227808B1
:100B1000AF000130F7004C227808B000F7014C22FA
:100B20007808B10020122008831687000000831285
:100B3000A0152008831687008312871D9D2D0000B5
:100B4000A12D0000201620088316870000008312C4
:100B5000B00CB00C3F30B005B5012F08B400B500A3
:100B6000B401300EF700F030F70577083407B20013
:100B70003508B3000318B30A3308B5003208B400CF
:100B800091227708B4007808B5007908B6007A0891
:100B9000B700BB007908BA007808B9007708B80038
:100BA000BF01FF30BE007F30BD008E30BC00AE22E2
:100BB0005230BF00B830BE002F30BD008630BC00C0
:100BC0007A08C3007908C2007808C1007708C0001D
:100BD000782383106630B700B600BB30B500843090
:100BE000B4007A08BB007908BA007808B900770821
:100BF000B800ED238A150A12E42A2016200883166D
:100C0000870000008312A0152008831687000000CB
:100C10008312071220122008831687000000831217
:100C20008711A01120088316870080308312B4003A
:100C30000222E530B40002226430BD007820201684
:100C400020088316870000008312A0152008831651
:100C5000870000008312871D2B2E07122012200808
:100C600083168700000083128711A01120088316C5
:100C7000870081308312B40002220130F7004C2239
:100C80007808AF000130F7004C227808B000F70177
:100C90004C227808B100201220088316870000003B
:100CA0008312A0152008831687008312871D562EF5
:100CB00000005A2E0000201620088316870000002E
:100CC0008312B00CB00C3F30B005B5012F08B40052
:100CD000B500B401300EF700F030F705770834079F
:100CE000B2003508B3000318B30A3308B500320860
:100CF000B40091227708B4007808B5007908B600EE
:100D00007A08B700BB007908BA007808B9007708FC
:100D1000B800BF01FF30BE007F30BD008E30BC0088
:100D2000AE22BF01BE017A30BD008530BC007A081A
:100D3000C3007908C2007808C1007708C000782392
:100D40008310B701B601C030B5008130B4007A0815
:100D5000BB007908BA007808B9007708B800ED231D
:100D60008A150A12EF2A2016200883168700000031
:100D70008312A01520088316870000008312071233
:100D80002012200883168700000083128711A0110B
:100D900020088316870090308312B4000222B40129
:100DA0000222201220088316870000008312A0155B
:100DB0002008831687008312871DDC2E0000E02E9A
:100DC00000002016200883168700000083122016DA
:100DD00020088316870000008312A01520088316C0
:100DE0008700000083120712201220088316870054
:100DF000000083128711A01120088316870091300C
:100E00008312B40002220130F7004C227808AF00B0
:100E1000F7014C227808B0002012200883168700C2
:100E200000008312A0152008831687008312871DF7
:100E3000172F00001B2F00002016200883168700A4
:100E4000000083122F08B2003008B1003208B4004D
:100E50003108B3003408B6003308B5008E30F7000F
:100E60003608F8003508F900FA01B61F3C2FF809DA
:100E7000F909F90A0319F80AF808031D492F790836
:100E8000F800F9010830F702F808031D492FF701AF
:100E9000522F0310F81B502FF90DF80DF703492FAF
:100EA000B61FF8137A08BF007908BE007808BD00A5
:100EB0007708BC00C301C201C1017730C0007823AC
:100EC0008A150A12FA2A3C08B63CBC00FA013D0811
:100ED000C000BD170310BD0CBE0CBF0CFA0CF90C02
:100EE000F80CF70CBC0B6A2FC01F812FF709F8090B
:100EF000F909FA09F70A0319F80A0319F90A031993
:100F0000FA0A0800F701F801F901FA01C401C50164
:100F1000C601C70143084204410440040319C02F1D
:100F20002030C8000310BC0DBD0DBE0DBF0DC40D9B
:100F3000C50DC60DC70D43084702031DA92F420862
:100F40004602031DA92F41084502031DA92F400891
:100F50004402031CBA2F4008C4024108031C410F7D
:100F6000C5024208031C420FC6024308031C430F7C
:100F7000C7020314F70DF80DF90DFA0DC80B922FE7
:080F80004430840083130800D3
:101000000408B4003308B600031921283208BF00D1
:101010003108BE003008BD002F08BC00C301C2016A
:101020002030C1008230C0008A1178238A157A08E6
:10103000B2007908B1007808B0007708AF00B60BAD
:1010400006283208BF003108BE003008BD002F0856
:10105000BC008A1163278A157A08B2007908B100AA
:101060007808B0007708AF00B21F4328B403B41665
:10107000AF09B009B109B209AF0A0319B00A0319DF
:10108000B10A0319B20A3B30BB009A30BA00CA3029
:10109000B900B8010A30B60033080319B40A32089F
:1010A000BF003108BE003008BD002F08BC003B085F
:1010B000C3003A08C2003908C1003808C0008A11CC
:1010C00082278A150008AF00840A0008B000840A4D
:1010D0000008B100840A0008B200FD308407F70858
:1010E000031D8528330A360203198528340803199D
:1010F00087280F39360203197F280318BF28B41B2D
:10110000BF28341B87282030B9282030B405B41EEE
:101110009728B4123308031DB4037708B4002D30A8
:10112000BC008A118F218A153408F700B4013308F6
:101130003602031DA7287708B4002E30BC008A11A0
:101140008F218A153408F7002030B4050030303084
:10115000B41EB928B4123308031DB4037708B400D1
:101160002D30BC008A118F218A153408F700B40194
:101170003030F7077708BC008A118F218A153B08A9
:10118000BF003A08BE003908BD003808BC00C301E2
:10119000C201C1010A30C0008A1182278A157A086B
:1011A000BB007908BA007808B9007708B800B60B18
:1011B0004F280800B7010408B6003710831B371406
:1011C000B01FEA28B617361EB60AAF09B009AF0A33
:1011D0000319B00A300EF038B200B207E23EB30095
:1011E000323EB50030080F39B307B307B507E93E03
:1011F000B400B407B4072F0E0F39B407B507B40D08
:10120000B50DB509B50D2F080F39B507B20D07306B
:10121000B1000A30B507B403031C0A29B407B303AD
:10122000031C0E29B307B203031C1229B207B10332
:10123000031C16293130840083130730360536131A
:1012400084033605031D2B29361A840A361A2B29E6
:101250002030F70048298407353004020319361777
:101260000008F700031D3C29361B3C29361A4C297F
:10127000B6193C2920304729B61F44292D30F700E4
:1012800084033613B6134829B61536123030F707E3
:1012900077080C1E49299900840A361F2C298A15C3
:1012A0000A126F2B0408B4003308B600031973291F
:1012B0003208BF003108BE003008BD002F08BC0056
:1012C000C301C2012030C1008230C0008A117823DE
:1012D0008A157A08B2007908B1007808B00077085A
:1012E000AF00B60B58293208BF003108BE003008E5
:1012F000BD002F08BC008A1163278A157A08B20046
:101300007908B1007808B0007708AF00B21F9529BE
:10131000B403B416AF09B009B109B209AF0A031991
:10132000B00A0319B10A0319B20A3B30BB009A3064
:10133000BA00CA30B900B8010A30B6003308031940
:10134000B40A3208BF003108BE003008BD002F08C3
:10135000BC003B08C3003A08C2003908C100380885
:10136000C0008A1182278A150008AF00840A00088D
:10137000B000840A0008B100840A0008B200FD3001
:101380008407F708031DD729330A36020319D72922
:1013900034080319D9290F3936020319D129031842
:1013A0000D2AB41B0D2A341BD9292030082A2030DD
:1013B000B405B41EE829B4123308031DB40377083A
:1013C000B4002D300C1EE22999003408F700B40156
:1013D00033083602031DF7297708B4002E300C1E9F
:1013E000EF2999003408F7002030B4050030303080
:1013F000B41E082AB4123308031DB4037708B400DE
:101400002D300C1E012A99003408F700B401303049
:10141000F70777080C1E0A2A99003B08BF003A0814
:10142000BE003908BD003808BC00C301C201C101BB
:101430000A30C0008A1182278A157A08BB00790811
:10144000BA007808B9007708B800B60BA1290800DF
:10145000840183131F308305713083168F000F08BA
:10146000031787110C3003139900A23098009030B5
:1014700083129800831603170908C03989000313E3
:101480001F129F1200300317880083128701880102
:101490008901FF300313A000AE01AD0183160317CD
:1014A0000908C039890003131F129F120030031767
:1014B0008800831203131F139F1383169F17831231
:1014C0001F149412A012200883168700831220167E
:1014D0002008831687008312A01120088316870036
:1014E0000130831294000030831694000108C7393C
:1014F00008388100831290010030F800920000301B
:101500008316920083122015200883168700831209
:10151000970183169B019C0101309D0083120317E4
:101520008701880189017130831603138F000F082A
:101530000C30831203178D0000308F008A110313C3
:1015400030208A15123003178D0000308F008A1169
:10155000031330208A151B3003178D0000308F00D5
:101560008A11031330208A158A1145218A152230E9
:1015700003178D0000308F008A110313BC218A15D8
:101580000330BD000230BE008A117D218A152A3049
:1015900003178D0000308F008A110313BC218A15B8
:1015A0000830AF00FA30BD008A1178208A15AF0BE1
:1015B000D22A8A1145218A150130BD00BE008A1148
:1015C0007D218A158A112E2D8A157A08A4007908A2
:1015D000A3007808A2007708A1008A11FD2D8A15C2
:1015E0007A08AC007908AB007808AA007708A9004F
:1015F0008A11B32E8A157A08A8007908A7007808FE
:10160000A6007708A500893084002408B2002308CA
:10161000B1002208B0002108AF000230B300002062
:101620002030BC008A118F218A154330BC008A11FA
:101630008F218A152030BC008A118F218A158930AC
:1016400084002C08B2002B08B1002A08B000290839
:10165000AF000230B30000202030BC008A118F217F
:101660008A152530BC008A118F218A152030BC00D4
:101670008A118F218A150D30BC008A118F218A159D
:101680000A30BC008A118F218A150130BD0002305A
:10169000BE008A117D218A152030BC008A118F215D
:1016A0008A15893084002808B2002708B10026086E
:1016B000B0002508AF000230B30000202030BC008D
:1016C0008A118F218A154330BC008A118F218A1517
:1016D000103084002E08B0002D08AF00DA2820302A
:1016E0000C1E702B9900893084002408B200230856
:1016F000B1002208B0002108AF000230B30052212F
:1017000020300C1E812B9900893084002C08B200F7
:101710002B08B1002A08B0002908AF000230B3003E
:10172000522120300C1E922B990089308400280809
:10173000B2002708B1002608B0002508AF0002302B
:10174000B300522120300C1EA32B99000D300C1E2B
:10175000A72B99000A300C1EAB2B9900AD0A031978
:10176000AE0A6430BD008A1178208A15DC2A630035
:04400E00F52CFF3F4F
:00000001FF
;PIC16F887
;CRC=D341  CREATED="26-VIII-13 19:04"
