:100000000C308A00E52C00000A108A100A118207C1
:1000100028340C3401340634C732EF26653AB01860
:10002000C1060A00A8312910CB306B36E9352019FA
:10003000B018B3060A00F73B77176D366131AE3161
:10004000FA060A00A8312910CB306B36E9352019A1
:10005000B0183300F73B77176D366131AE317A0057
:10006000831603178C170C140000000083120C0871
:100070007F39031976280313BD0003170D080313F6
:10008000BE0003170F080313BF003D080C1E4628CF
:1000900099003E0803178D0003133F0803178F00D4
:1000A00083168C170C140000000083120C0D0E0D2B
:1000B0007F39031976280313BD0003170D080313B6
:1000C000BE0003170F080313BF003D080C1E66286F
:1000D00099003E0803178D0003133F0803178F0094
:1000E0008D0A03198F0A031330280317031308001E
:1000F0000830F80000008711A0112008831687003F
:1001000000008312CE0D0712031C8C282016200835
:1001100083168700902883122012200883168700F8
:1001200000008312A0152008831687008312871D04
:100130009728F80B7A2800008711A0112008831651
:100140008700000083122016200883168700000015
:1001500000008312A0152008831687008312871DD4
:10016000AF28F8010000071A78148711A0112008A1
:100170008316870083120712201220088316870037
:1001800083120800201620088316870000008312BF
:10019000A015200883168700000083120712201282
:1001A000200883168700000083128711A011200801
:1001B000831687003C308312CE0078203D08CE00A5
:1001C00078203E08CE007820201220088316870071
:1001D00000008312A0152008831687008312871D54
:1001E000EF280000F328000020162008831687005F
:1001F0000000831208004B308400831300080319A9
:100200000E290230F800F701F70B0429F80B032937
:100210009730F700F70B0A29800B012908005218C4
:100220001329081214290816831608128312D218EB
:100230001B2988121C2988168316881283125219CA
:100240002329081324290817831608138312D219A7
:100250002B2988132C2988178316881300008312F2
:1002600009148316091034293529831209108316BD
:10027000091083120800D301831608160030831278
:10028000081A0130D3048316881600308312881AA6
:100290000130F7000310F70D7708D3048316081711
:1002A00000308312081B0130F700F70DF70DFC300A
:1002B000F7057708D3048316881700308312881B4C
:1002C0000130F700F70DF70DF70DF830F705770857
:1002D000D3045308F8000800831609108910091187
:1002E0008312891083168910081688160817881734
:1002F000831209158316091100008312091483164D
:100300000910000083123B217808D20009108316DF
:100310000910000083120914831609108F29831213
:100320003B217808D10009108316091008128812A1
:10033000081388138312520EF700F030F705770880
:100340005104F8007808D100D11FA8298316742918
:10035000CF08031DAD298910AE2989148316891091
:10036000000083120911831609110000831209107D
:10037000831609108312500ED1000F30D105510899
:10038000D2000F2150080F39D100D2000F210800F0
:10039000831608128812081388130910891009118E
:1003A000831289108316891083120911831609118B
:1003B00083120910831609100F308312CB00FB2023
:1003C0000130BD003D08033C031CEE290330D20080
:1003D0000F210530CB00FB20BD0AE2290230D200FC
:1003E0000F21BD013D08033C031CFF293D080420EB
:1003F000BE00CF013E08D0006C21BD0AF2290800E2
:100400004C0B032A062A4030CD00072ACD010130CB
:100410004B02CD074D088038CE00CF014E08D000EA
:100420006C2108004A08073A0319202A0B3A0319DD
:10043000252A063A03192D2A023A0319332A382AA3
:100440000130CB00CC0000223E2ACF010130D00089
:100450006C210230CB00FB203E2A0130CB00023061
:10046000CC0000223E2ACF011030D0006C213E2A61
:100470000130CF004A08D0006C213E2A08008316C4
:1004800003178C170C140000000083120C087F392E
:100490000319832A0313BD0003170D080313BE00BD
:1004A00003170F080313BF003D08CA0012223E08BD
:1004B00003178D0003133F0803178F0083168C1753
:1004C0000C140000000083120C0D0E0D7F3903196F
:1004D000832A0313BD0003170D080313BE0003177F
:1004E0000F080313BF003D08CA0012223E0803177D
:1004F0008D0003133F0803178F008D0A03198F0A1D
:1005000003133F2A0317031308000830CF007708AE
:10051000D000201620088316870000008312A01543
:100520002008831687008312871D942A071A031454
:10053000071E0310F80D0000A01120088316870085
:1005400083128711CF0B892A201620088316870073
:1005500000008312071250080319B32A2012200842
:100560008316870083120000A015200883168700D9
:100570008312871DB92A00008711A0112008831655
:1005800087000000831207122012200883168700BC
:10059000831208008E30F7004E08F8004D08F9006D
:1005A000FA01F808031DDE2A7908F800F90108307D
:1005B000F702F808031DDE2AF701E62A0310F81BEC
:1005C000E52AF90DF80DF703DE2AF81308005108A3
:1005D0000319AC2BDD0055080319AC2BDD02031CFD
:1005E000F62A7F30DD070318AC2BFC2A8130DD02B0
:1005F000031CAC2B0319AC2B5D08F700F801F901C3
:10060000FA01DC015208DB00DB175308DA0054085A
:10061000D9001930DD005808D90203181F2B01300A
:10062000DA0203181F2BDB0203181F2BDC0203184E
:100630001F2BDC0ADB0ADA0A5808D907512B5708A6
:10064000DA0203183A2B0130DB0203183A2BDC02E2
:1006500003183A2BDC0ADB0A5708DA075808D907CF
:10066000031C512BDA0A031D512BDB0A031D512BEE
:10067000DC0A512B56088038DB020318502B01305E
:10068000DC020318502BDC0A56088038DB075708B9
:10069000DA07031C2E2BDB0A031D2E2BDC0A2E2B64
:1006A0007A14DD0B542B5F2B0310D90DDA0DDB0D03
:1006B000DC0D0310FA0DF90DF80DDE0D0B2B5E1C91
:1006C000672B0310F80CF90CFA0CDE0C6A2BF703FD
:1006D0000319AC2BDE1B932B0310D90DDA0DDB0DA8
:1006E000DC0D5808D90203187F2B0130DA020318F9
:1006F0007F2BDB0203187F2BDC02031CA22B570885
:10070000DA0203188A2B0130DB0203188A2BDC0281
:10071000031CA22B56088038DB020318932B0130F0
:10072000DC02031CA22BFA0A031DA22BF90A031DEB
:10073000A22BF80A031DA22BF70A0319AC2BF80C05
:10074000F90CFA0C5208DD005608DD06DD1FAA2B55
:10075000F817B02BF813B02BF701F801F901FA01E3
:1007600008004A080319212CD2004E080319212C35
:10077000D2070318C22B7F30D202031C212C03198D
:10078000212CC62B8130D2070318212C5208F700E8
:10079000F801F901FA014B08D600D6174C08D5002C
:1007A0004D08D4001830D200D301541CEF2B51084F
:1007B000FA07031CE12BF90A031DE12BF80A0319C0
:1007C000D3175008F907031CE82BF80A0319D317AD
:1007D0004F08CC00CC174C08F8070318D317D30DDB
:1007E000F80CF90CFA0CD60CD50CD40C0310D20B67
:1007F000D42B0130F7070318212CF81B062CD60D3B
:10080000FA0DF90DF80DF7030319212CD61F172C3B
:10081000FA0A031D172CF90A031D172CF80A031DE9
:10082000172CF80CF90CFA0CF70A0319212C4B08B9
:10083000D3004F08D306D31F1F2CF817252CF8130D
:10084000252CF701F801F901FA010800803083181E
:10085000D806DD01DE015408DC005808DC06530828
:100860000319162DDB00F700570803191F2DDB02B3
:100870000319BB2C031C792C5808E100E117590817
:10088000E0005A08DF00DE010310E10CE00CDF0C91
:10089000DE0CDB0B432CDC1F502C5D14332D5D1064
:1008A0005B105D16563084008313482D5D12DC1BEF
:1008B000632C5B1C6E2CE10CE00CDF0CDE0CF70AE9
:1008C00003192E2D6E2CE11B712C0310DE0DDF0D94
:1008D000E00DE10DF70303192E2D632C5D17DB2CC2
:1008E0005D135408DC00DC1F772CE117272DE11382
:1008F000272D5708DB00F7005308DB025408E100FE
:10090000E1175508E0005608DF00DE010310E10C96
:10091000E00CDF0CDE0CDB0B852CDC1F922CDD14D5
:10092000332DDD105B10DD165A3084008313482D03
:10093000DD12DC1BA52C5B1CB02CE10CE00CDF0CE9
:10094000DE0CF70A03192E2DB02CE11BB32C03107B
:10095000DE0DDF0DE00DE10DF70303192E2DA52CA3
:10096000DD17DB2CDD135808DC00DC1FB92CE11788
:10097000272DE113272D5808E100E1175908E00061
:100980005A08DF00DC1FC82CE1135D15332D5D1103
:10099000DE015B10563084008313482DDC1BF12CE4
:1009A0005408DC005B1CDB2CE10CE00CDF0CDE0CE3
:1009B000F70A03192E2DDE1FEC2CDF0A031DEC2C89
:1009C000E00A031DEC2CE10A031DEC2CE10CE00C09
:1009D000DF0CF70A03192E2D5D1B702CDD1BB22CCA
:1009E000102D8030E106E11FF92C332D5808DC0072
:1009F000062D5408DC00E108031D062DE008031D48
:100A0000062DDF08031D062DF701272DE11B102DF4
:100A10000310DE0DDF0DE00DE10DF70B062D2E2D81
:100A2000DC1F142DE117272DE113272D5708F700A0
:100A30005808E1005908E0005A08DF00272D530844
:100A4000F7005408E1005508E0005608DF0061088F
:100A5000F8006008F9005F08FA00662DF701F80158
:100A6000F901FA01662DDE01DF09E009E109DE097D
:100A7000DE0A031D412DDF0A031D412DE00A031983
:100A8000E10A5D184F2CDD18912C5D19C72CF62C4E
:100A90000008DF07031C522DE00A031D522DE10A56
:100AA00003195B1484030008E007031C5A2DE10AB4
:100AB00003195B1484030008801F803AE1070318C0
:100AC0005B145D1A562CDD1A982CCE2C08002016CB
:100AD00020088316870000008312A01520088316C3
:100AE000870000008312871D732D07122012200833
:100AF00083168700000083128711A0112008831637
:100B0000870080308312CE007820E330CE0078203A
:100B1000201220088316870000008312A0152008E9
:100B2000831687008312871D932D0000972D0000E8
:100B30002016200883168700000064308312CB0043
:100B4000FB20201620088316870000008312A015C2
:100B50002008831687000000831207122012200845
:100B600083168700000083128711A01120088316C6
:100B7000870081308312CE0078200130F700852273
:100B80007808BD000130F70085227808BE00F70123
:100B900085227808BF0020122008831687000000F5
:100BA0008312A0152008831687008312871DD62D77
:100BB0000000DA2D000020162008831687000000B0
:100BC0008312BE0CBE0C3F30BE05C3013D08C200FF
:100BD000C300C2013E0EF700F030F7057708420768
:100BE000C0004308C1000318C10A4108CE004008F4
:100BF000CD00CA227708C2007808C3007908C40073
:100C00007A08C500D4007908D3007808D2007708A4
:100C1000D100D801FF30D7007F30D6008E30D5000C
:100C2000E7225230CD00B830CC002F30CB008630D8
:100C3000CA007A08D1007908D0007808CF00770878
:100C4000CE00B12383106630D600D500BB30D4006F
:100C50008430D3007A08DA007908D9007808D800FF
:100C60007708D70026248A150A12B92D20162008E5
:100C70008316870000008312A015200883168700C2
:100C8000000083120712201220088316870000003C
:100C900083128711A01120088316870080308312E9
:100CA000CE007820E530CE0078206430CB00FB20E9
:100CB000201620088316870000008312A015200844
:100CC0008316870000008312871D642E07122012EE
:100CD000200883168700000083128711A0112008C6
:100CE0008316870081308312CE0078200130F70010
:100CF00085227808BD000130F70085227808BE0003
:100D0000F70185227808BF0020122008831687008B
:100D100000008312A0152008831687008312871D08
:100D20008F2E0000932E00002016200883168700C7
:100D300000008312BE0CBE0C3F30BE05C3013D084F
:100D4000C200C300C2013E0EF700F030F70577087D
:100D50004207C0004308C1000318C10A4108CE0081
:100D60004008CD00CA227708C2007808C30079087D
:100D7000C4007A08C500D4007908D3007808D200EE
:100D80007708D100D801FF30D7007F30D6008E30F1
:100D9000D500E722CD01CC017A30CB008530CA00E6
:100DA0007A08D1007908D0007808CF007708CE0003
:100DB000B1238310D601D501C030D4008130D300D7
:100DC0007A08DA007908D9007808D8007708D700BF
:100DD00026248A150A12C42D20162008831687009F
:100DE00000008312A01520088316870000008312DC
:100DF0000712201220088316870000008312871133
:100E0000A01120088316870090308312CE0078202E
:100E1000CE0178202012200883168700000083125C
:100E2000A0152008831687008312871D152F000048
:100E3000192F000020162008831687000000831257
:100E4000201620088316870000008312A0152008B2
:100E500083168700000083120712201220088316D1
:100E60008700000083128711A011200883168700D5
:100E700091308312CE0078200130F7008522780867
:100E8000BD00F70185227808BE00201220088316D5
:100E9000870000008312A0152008831687008312A4
:100EA000871D502F0000542F0000201620088316A5
:100EB0008700000083123D08C0003E08BF004008C4
:100EC000C2003F08C1004208C4004108C3008E3080
:100ED000F7004408F8004308F900FA01C41F752F11
:100EE000F809F909F90A0319F80AF808031D822F0D
:100EF0007908F800F9010830F702F808031D822F7D
:100F0000F7018B2F0310F81B892FF90DF80DF7034C
:100F1000822FC41FF8137A08CD007908CC00780816
:100F2000CB007708CA00D101D001CF017730CE00C5
:100F3000B1238A150A12CF2D2016200883168700A8
:100F400000008312A015200883168700000083127A
:100F500007122012200883168700000083128711D1
:100F6000A011200883168700C0308312CE0078209D
:100F70004C08CE0078202016200883168700000039
:100F80008312A01520088316870000008312871D96
:100F9000C72F071220122008831687000000831233
:100FA0008711A011200883168700C1308312CE005C
:100FB0007820F70185227808CD00201220088316BA
:100FC000870000008312A015200883168700831273
:100FD000871DE82F0000EC2F000020162008831644
:0C0FE0008700000083124D08F800080094
:10100000201620088316870000008312A0152008F0
:10101000831687000000831207122012200883160F
:101020008700000083128711A01120088316870013
:101030003C308312CE008A1178208A150330CE000E
:101040008A1178208A152016200883168700000050
:101050008312A01520088316870000008312871DC5
:101060002F28071220122008831687000000831201
:101070008711A0112008831687003D308312CE000F
:101080008A1178208A150130F7008A1185228A1585
:101090007808BE000130F7008A1185228A15780889
:1010A000BD000130F7008A1185228A157808C20038
:1010B0000130F7008A1185228A157808C1000130B5
:1010C000F7008A1185228A157808C000F7018A1175
:1010D00085228A157808BF00201220088316870011
:1010E00000008312A0152008831687008312871D35
:1010F000772800007B280000201620088316870030
:10110000000083123E08A2003D08A1004008A40090
:101110003F08A3004208A6004108A5008A150A124C
:10112000D92D0430CC008A119C278A157808BD007F
:101130000530CC008A119C278A15780EF7000F30F5
:10114000F7057708CE01CD008A11CA228A157708E3
:10115000C6007808C7007908C8007A08C900D4001A
:101160004808D3004708D2004608D100D801D7016B
:10117000D6018330D5008A11E7228A157A08C1008A
:101180007908C0007808BF007708BE00CE013D088E
:10119000CD008A11CA228A1583107A08D6007908F0
:1011A000D5007808D4007708D3004108DA00400859
:1011B000D9003F08D8003E08D7008A1126248A1596
:1011C0007A08C5007908C4007808C3007708C2000F
:1011D0004208F7004308F8004408F9004508FA00FF
:1011E0008A150A12DA2D0130CC008A119C278A1543
:1011F000C001BF01BE017808BD000230CC008A11D9
:101200009C278A15C2017808C1000330CC008A11DE
:101210009C278A157808C300430EF7000F30F705A6
:101220007708CE01CD008A11CA228A157708CD0031
:101230007808CE007908CF007A08D000D400790869
:10124000D3007808D2007708D100D801D701D601A1
:101250008130D5008A11E7228A157A08CB007908F7
:10126000CA007808C9007708C800CD013D0DCE003E
:101270003E0DCF003F0DD000CE0DCF0DD00DFC3078
:10128000CE05410DF900420DFA00F90DFA0DFC30C2
:10129000F9057908CD047A08CE04430EF700F70C5F
:1012A000F70C0330F70577084D04F7004E08F800F7
:1012B0004F08F9005008FA007A08D6007908D500DE
:1012C0007808D4007708D300B630F700FA01F901A6
:1012D000F8015308540455045604031D7129F701FD
:1012E0007E290310F81B7D29D30DD40DD50DD60D05
:1012F000FA0DF90DF80DF70B7129F8137708CD00E9
:101300007808CE007908CF007A08D00083107A08D8
:10131000D6007908D5007808D4007708D3004B08A8
:10132000DA004A08D9004908D8004808D7008A11CD
:1013300026248A157A08C7007908C6007808C500EF
:101340007708C4004408F7004508F8004608F9008B
:101350004708FA008A150A12E32D20162008831682
:10136000870000008312A015200883168700000064
:1013700083120712201220088316870000008312B0
:101380008711A011200883168700C0308312CE0079
:101390008A1178208A152630CE008A1178208A1585
:1013A000B830CE008A1178208A15201220088316C2
:1013B000870000008312A01520088316870083127F
:1013C000871DE0290000E42900002016200883166C
:1013D0008700000083122016200883168700000073
:1013E0008312A015200883168700000083120712BD
:1013F0002012200883168700000083128711A01195
:10140000200883168700C0308312CE008A1178200E
:101410008A151330CE008A1178208A150730CE0045
:101420008A1178208A152012200883168700000070
:101430008312A0152008831687008312871D1E2A99
:101440000000222A000020162008831687000000D2
:101450008312201620088316870000008312A0152F
:10146000200883168700000083120712201220082C
:1014700083168700000083128711A01120088316AD
:101480008700C0308312CE008A1178208A1526305A
:10149000CE008A1178208A153930CE008A11782042
:1014A0008A15201220088316870000008312A015D9
:1014B0002008831687008312871D5C2A0000602A9B
:1014C00000002016200883168700000083128A156A
:1014D0000A12EC2D4A08B63CCA00FA014B08CE00AD
:1014E000CB170310CB0CCC0CCD0CFA0CF90CF80C70
:1014F000F70CCA0B712ACE1F882AF709F809F909D7
:10150000FA09F70A0319F80A0319F90A0319FA0A7A
:101510000800F701F801F901FA01D201D301D40161
:10152000D501510850044F044E040319C72A203036
:10153000D6000310CA0DCB0DCC0DCD0DD20DD30DA1
:10154000D40DD50D51085502031DB02A5008540280
:10155000031DB02A4F085302031DB02A4E08520241
:10156000031CC12A4E08D2024F08031C4F0FD3029E
:101570005008031C500FD4025108031C510FD50210
:101580000314F70DF80DF90DFA0DD60B992A523008
:101590008400831308000408C2004108C400031932
:1015A000EC2A4008CD003F08CC003E08CB003D08A7
:1015B000CA00D101D0012030CF008230CE008A1184
:1015C000B1238A157A08C0007908BF007808BE00E8
:1015D0007708BD00C40BD12A4008CD003F08CC00DD
:1015E0003E08CB003D08CA006A227A08C00079088C
:1015F000BF007808BE007708BD00C01F0C2BC203D7
:10160000C216BD09BE09BF09C009BD0A0319BE0A39
:101610000319BF0A0319C00A3B30C9009A30C80039
:10162000CA30C700C6010A30C40041080319C20A03
:101630004008CD003F08CC003E08CB003D08CA0062
:101640004908D1004808D0004708CF004608CE001E
:1016500089220008BD00840A0008BE00840A000830
:10166000BF00840A0008C000FD308407F708031D8E
:101670004C2B410A440203194C2B420803194E2BF0
:101680000F3944020319462B0318862BC21B862BE5
:10169000421B4E2B2030802B2030C205C21E5E2BF9
:1016A000C2124108031DC2037708C2002D30CA00D0
:1016B0008A1112228A154208F700C2014108440229
:1016C000031D6E2B7708C2002E30CA008A11122229
:1016D0008A154208F7002030C20500303030C21EA3
:1016E000802BC2124108031DC2037708C2002D30AF
:1016F000CA008A1112228A154208F700C20130304E
:10170000F7077708CA008A1112228A154908CD0006
:101710004808CC004708CB004608CA00D101D001D8
:10172000CF010A30CE0089227A08C9007908C800A2
:101730007808C7007708C600C40B182B0800C5013D
:101740000408C4004510831B4514BE1FAF2BC417EB
:10175000441EC40ABD09BE09BD0A0319BE0A3E0ED5
:10176000F038C000C007E23EC100323EC3003E0870
:101770000F39C107C107C307E93EC200C207C2074C
:101780003D0E0F39C207C307C20DC30DC309C30DF8
:101790003D080F39C307C00D0730BF000A30C3072B
:1017A000C203031CCF2BC207C103031CD32BC107E9
:1017B000C003031CD72BC007BF03031CDB2B3F3028
:1017C0008400831307304405441384034405031D38
:1017D000F02B441A840A441AF02B2030F7000D2C09
:1017E000840743300402031944170008F700031D5F
:1017F000012C441B012C441A112CC419012C20303B
:101800000C2CC41F092C2D30F70084034413C4137F
:101810000D2CC41544123030F70777080C1E0E2C1F
:101820009900840A441FF12B08000408C2004108F3
:10183000C4000319362C4008CD003F08CC003E08F8
:10184000CB003D08CA00D101D0012030CF0082304A
:10185000CE008A11B1238A157A08C0007908BF002A
:101860007808BE007708BD00C40B1B2C4008CD00D3
:101870003F08CC003E08CB003D08CA006A227A0827
:10188000C0007908BF007808BE007708BD00C01FFF
:10189000562CC203C216BD09BE09BF09C009BD0A44
:1018A0000319BE0A0319BF0A0319C00A3B30C90055
:1018B0009A30C800CA30C700C6010A30C4004108C7
:1018C0000319C20A4008CD003F08CC003E08CB00F7
:1018D0003D08CA004908D1004808D0004708CF0099
:1018E0004608CE0089220008BD00840A0008BE0018
:1018F000840A0008BF00840A0008C000FD30840785
:10190000F708031D962C410A44020319962C42083D
:101910000319982C0F3944020319902C0318CC2C6E
:10192000C21BCC2C421B982C2030C72C2030C20567
:10193000C21EA72CC2124108031DC2037708C200B1
:101940002D300C1EA12C99004208F700C20141085D
:101950004402031DB62C7708C2002E300C1EAE2C9C
:1019600099004208F7002030C20500303030C21E16
:10197000C72CC2124108031DC2037708C2002D30D4
:101980000C1EC02C99004208F700C2013030F70746
:1019900077080C1EC92C99004908CD004808CC00D6
:1019A0004708CB004608CA00D101D001CF010A3058
:1019B000CE0089227A08C9007908C8007808C700D3
:1019C0007708C600C40B622C0800840183131F3003
:1019D0008305713083168F000F08031787110C30B1
:1019E00003139900A2309800903083129800831658
:1019F00003170908C039890003131F129F12003012
:101A0000031788008312870188018901FF300313BF
:101A1000A000A101A201A301A401A501A601BC018E
:101A2000BB01831603170908C039890003131F126D
:101A30009F12003003178800831203131F139F1394
:101A400083169F1783121F149412A0122008831666
:101A50008700831220162008831687008312A011A6
:101A6000200883168700013083129400003083160B
:101A700094000108C73908388100831290010030B2
:101A8000F80092000030831692008312201520087F
:101A9000831687008312970183169B019C010130F6
:101AA0009D00831203178701880189017130831615
:101AB00003138F000F080C30831203178D000030C2
:101AC0008F008A11031330208A15123003178D00FE
:101AD00000308F008A11031330208A151B30031742
:101AE0008D0000308F008A11031330208A15BD014C
:101AF0001830BE008A11C2208A150130BD00BE0117
:101B00008A11C2208A150230BD00BE018A11C2208E
:101B10008A158A11C8218A15223003178D000030DA
:101B20008F008A1103133F228A150330CB00023045
:101B3000CC008A1100228A152A3003178D0000304C
:101B40008F008A1103133F228A150830BD00FA3036
:101B5000CB008A11FB208A15BD0BA72D8A11C82145
:101B60008A150130CB00CC008A1100228A158A1117
:101B7000672D8A157A08AA007908A9007808A800B4
:101B80007708A7008A11362E8A157A08B6007908D8
:101B9000B5007808B4007708B3008A11EC2E8A15D6
:101BA0007A08AE007908AD007808AC007708AB0081
:101BB000002891287A08B2007908B1007808B000AE
:101BC0007708AF00F3287A08BA007908B9007808D6
:101BD000B8007708B700AD29893084002A08C00012
:101BE0002908BF002808BE002708BD000230C10038
:101BF000CB22B230CA008A1112228A154330CA00A1
:101C00008A1112228A152030CA008A1112228A15DE
:101C1000893084003608C0003508BF003408BE0093
:101C20003308BD000230C100CB222530CA008A1122
:101C300012228A150130CB000230CC008A1100221A
:101C40008A15893084002E08C0002D08BF002C089A
:101C5000BE002B08BD000230C100CB22B230CA004A
:101C60008A1112228A154330CA008A1112228A155B
:101C70002030CA008A1112228A15053084003A08E1
:101C8000C0003908BF003808BE003708BD00C101D8
:101C9000CB225030CA008A1112228A156130CA0044
:101CA0008A1112228A152030CA008A1112228A153E
:101CB000103084003C08BE003B08BD009F2320304C
:101CC0000C1E602E9900893084002A08C000290863
:101CD000BF002808BE002708BD000230C10015243F
:101CE00020300C1E712E9900893084003608C00007
:101CF0003508BF003408BE003308BD000230C10003
:101D0000152420300C1E822E9900893084002E0864
:101D1000C0002D08BF002C08BE002B08BD000230FB
:101D2000C100152420300C1E932E9900053084002C
:101D30003A08C0003908BF003808BE003708BD00A7
:101D40000230C100152420300C1EA42E9900023050
:101D500084003208C0003108BF003008BE002F08E0
:101D6000BD000230C100152420300C1EB52E990094
:101D7000103084002208BE002108BD009F232030BF
:101D80000C1EC02E9900103084002408BE002308C9
:101D9000BD009F2320300C1ECB2E990010308400F4
:101DA0002608BE002508BD009F2320300C1ED62E1D
:101DB00099000A300C1EDA2E99000D300C1EDE2E12
:101DC0009900BB0A0319BC0A6430CB008A11FB20BE
:061DD0008A15B12D63002D
:04400E00F52CFF3F4F
:00000001FF
;PIC16F887
;CRC=67FD  CREATED="10-IX-13 13:59"
